:03000000020030CB
:0300030002008672
:03000B000200D719
:1000300075330375340B75890175350FD2AFD2A9AD
:10004000D2A8D2B8D288906000319E3191C2B2203D
:1000500079028002115A11EC80F5E620900D117D95
:10006000209008117D30900304801020910D117DA7
:10007000209108117D309103600114F6227EC87F23
:10008000FADFFEDEFA22117D20B249117D30B24442
:10009000E533B40126E534B40B0975340C7831D25C
:1000A000798031B40C0975340D7832D2798025B459
:1000B0000D09753302C279D28D8019B402097533E6
:1000C00003C28CC28D800DB4030A75330175340BE5
:1000D0007830D279D2B232D5350775350FB278057E
:1000E00032C28C758C10758A00D28C3275050475FD
:1000F0000401317FE533B40124E534B40B067468A0
:1001000031B88010B40C06746D31B88007B40D049A
:10011000747331B8745F31B89001E4800EB4020595
:100120009001F68006B403039001EC31CDAA32BAF7
:100130003C057532000531AA31BA3C057531000520
:1001400030AA30BA18037530007505047504003103
:100150007FE53031623171E53131623171E5323143
:10016000622275F00A84243031B8E5F0243031B8C9
:1001700022207806743A31B88004742031B822D332
:10018000E504C004050413D504FCD004250531A3FF
:1001900022743831A3740C31A3740631A322740184
:1001A00031A322C083C082906000D2B4C2B5F0C235
:1001B000B431DBD082D08322C083C082906000D271
:1001C000B4D2B5F0C2B431DBD082D083227400F94E
:1001D00093600731B8E904D5F0F5227E0A7FFADF93
:1001E000FEDEFA2253455454494E470053544F50B3
:1001F00050454420200052554E4E494E472E2E0069
:00000001FF
